{
  "contractName": "FarmToken",
  "abi": [
    {
      "inputs": [],
      "stateMutability": "nonpayable",
      "type": "constructor"
    },
    {
      "anonymous": false,
      "inputs": [
        {
          "indexed": true,
          "internalType": "address",
          "name": "owner",
          "type": "address"
        },
        {
          "indexed": true,
          "internalType": "address",
          "name": "spender",
          "type": "address"
        },
        {
          "indexed": false,
          "internalType": "uint256",
          "name": "value",
          "type": "uint256"
        }
      ],
      "name": "Approval",
      "type": "event"
    },
    {
      "anonymous": false,
      "inputs": [
        {
          "indexed": true,
          "internalType": "address",
          "name": "to",
          "type": "address"
        },
        {
          "indexed": false,
          "internalType": "uint256",
          "name": "value",
          "type": "uint256"
        }
      ],
      "name": "Mint",
      "type": "event"
    },
    {
      "anonymous": false,
      "inputs": [
        {
          "indexed": true,
          "internalType": "address",
          "name": "from",
          "type": "address"
        },
        {
          "indexed": true,
          "internalType": "address",
          "name": "to",
          "type": "address"
        },
        {
          "indexed": false,
          "internalType": "uint256",
          "name": "value",
          "type": "uint256"
        }
      ],
      "name": "Transfer",
      "type": "event"
    },
    {
      "inputs": [
        {
          "internalType": "address",
          "name": "",
          "type": "address"
        },
        {
          "internalType": "address",
          "name": "",
          "type": "address"
        }
      ],
      "name": "allowance",
      "outputs": [
        {
          "internalType": "uint256",
          "name": "",
          "type": "uint256"
        }
      ],
      "stateMutability": "view",
      "type": "function",
      "constant": true
    },
    {
      "inputs": [
        {
          "internalType": "address",
          "name": "",
          "type": "address"
        }
      ],
      "name": "balanceOf",
      "outputs": [
        {
          "internalType": "uint256",
          "name": "",
          "type": "uint256"
        }
      ],
      "stateMutability": "view",
      "type": "function",
      "constant": true
    },
    {
      "inputs": [],
      "name": "decimals",
      "outputs": [
        {
          "internalType": "uint8",
          "name": "",
          "type": "uint8"
        }
      ],
      "stateMutability": "view",
      "type": "function",
      "constant": true
    },
    {
      "inputs": [],
      "name": "masterChef",
      "outputs": [
        {
          "internalType": "address",
          "name": "",
          "type": "address"
        }
      ],
      "stateMutability": "view",
      "type": "function",
      "constant": true
    },
    {
      "inputs": [],
      "name": "name",
      "outputs": [
        {
          "internalType": "string",
          "name": "",
          "type": "string"
        }
      ],
      "stateMutability": "view",
      "type": "function",
      "constant": true
    },
    {
      "inputs": [],
      "name": "owner",
      "outputs": [
        {
          "internalType": "address",
          "name": "",
          "type": "address"
        }
      ],
      "stateMutability": "view",
      "type": "function",
      "constant": true
    },
    {
      "inputs": [],
      "name": "symbol",
      "outputs": [
        {
          "internalType": "string",
          "name": "",
          "type": "string"
        }
      ],
      "stateMutability": "view",
      "type": "function",
      "constant": true
    },
    {
      "inputs": [
        {
          "internalType": "address",
          "name": "_address",
          "type": "address"
        }
      ],
      "name": "updateMasterChef",
      "outputs": [
        {
          "internalType": "bool",
          "name": "",
          "type": "bool"
        }
      ],
      "stateMutability": "nonpayable",
      "type": "function"
    },
    {
      "inputs": [
        {
          "internalType": "address",
          "name": "_to",
          "type": "address"
        },
        {
          "internalType": "uint256",
          "name": "_value",
          "type": "uint256"
        }
      ],
      "name": "transfer",
      "outputs": [
        {
          "internalType": "bool",
          "name": "",
          "type": "bool"
        }
      ],
      "stateMutability": "nonpayable",
      "type": "function"
    },
    {
      "inputs": [
        {
          "internalType": "address",
          "name": "_spender",
          "type": "address"
        },
        {
          "internalType": "uint256",
          "name": "_value",
          "type": "uint256"
        }
      ],
      "name": "approve",
      "outputs": [
        {
          "internalType": "bool",
          "name": "",
          "type": "bool"
        }
      ],
      "stateMutability": "nonpayable",
      "type": "function"
    },
    {
      "inputs": [
        {
          "internalType": "address",
          "name": "_from",
          "type": "address"
        },
        {
          "internalType": "address",
          "name": "_to",
          "type": "address"
        },
        {
          "internalType": "uint256",
          "name": "_value",
          "type": "uint256"
        }
      ],
      "name": "transferFrom",
      "outputs": [
        {
          "internalType": "bool",
          "name": "",
          "type": "bool"
        }
      ],
      "stateMutability": "nonpayable",
      "type": "function"
    },
    {
      "inputs": [
        {
          "internalType": "address",
          "name": "_to",
          "type": "address"
        },
        {
          "internalType": "uint256",
          "name": "_value",
          "type": "uint256"
        }
      ],
      "name": "mint",
      "outputs": [
        {
          "internalType": "bool",
          "name": "",
          "type": "bool"
        }
      ],
      "stateMutability": "nonpayable",
      "type": "function"
    }
  ],
  "bytecode": "0x60806040526040518060400160405280600981526020017f4661726d546f6b656e0000000000000000000000000000000000000000000000815250600090805190602001906200005192919062000137565b506040518060400160405280600481526020017f4641524d00000000000000000000000000000000000000000000000000000000815250600190805190602001906200009f92919062000137565b50348015620000ad57600080fd5b5033600260006101000a81548173ffffffffffffffffffffffffffffffffffffffff021916908373ffffffffffffffffffffffffffffffffffffffff1602179055506000600360006101000a81548173ffffffffffffffffffffffffffffffffffffffff021916908373ffffffffffffffffffffffffffffffffffffffff1602179055506200024c565b8280546200014590620001e7565b90600052602060002090601f016020900481019282620001695760008555620001b5565b82601f106200018457805160ff1916838001178555620001b5565b82800160010185558215620001b5579182015b82811115620001b457825182559160200191906001019062000197565b5b509050620001c49190620001c8565b5090565b5b80821115620001e3576000816000905550600101620001c9565b5090565b600060028204905060018216806200020057607f821691505b602082108114156200021757620002166200021d565b5b50919050565b7f4e487b7100000000000000000000000000000000000000000000000000000000600052602260045260246000fd5b61144c806200025c6000396000f3fe608060405234801561001057600080fd5b50600436106100b45760003560e01c806357e455621161007157806357e45562146101a357806370a08231146101d35780638da5cb5b1461020357806395d89b4114610221578063a9059cbb1461023f578063dd62ed3e1461026f576100b4565b806306fdde03146100b9578063095ea7b3146100d757806323b872dd14610107578063313ce5671461013757806340c10f1914610155578063575a86b214610185575b600080fd5b6100c161029f565b6040516100ce9190611121565b60405180910390f35b6100f160048036038101906100ec9190610ed4565b61032d565b6040516100fe9190611106565b60405180910390f35b610121600480360381019061011c9190610e85565b61041f565b60405161012e9190611106565b60405180910390f35b61013f610781565b60405161014c91906111fe565b60405180910390f35b61016f600480360381019061016a9190610ed4565b610786565b60405161017c9190611106565b60405180910390f35b61018d6109f4565b60405161019a91906110eb565b60405180910390f35b6101bd60048036038101906101b89190610e20565b610a1a565b6040516101ca9190611106565b60405180910390f35b6101ed60048036038101906101e89190610e20565b610af6565b6040516101fa91906111e3565b60405180910390f35b61020b610b0e565b60405161021891906110eb565b60405180910390f35b610229610b34565b6040516102369190611121565b60405180910390f35b61025960048036038101906102549190610ed4565b610bc2565b6040516102669190611106565b60405180910390f35b61028960048036038101906102849190610e49565b610dd1565b60405161029691906111e3565b60405180910390f35b600080546102ac90611347565b80601f01602080910402602001604051908101604052809291908181526020018280546102d890611347565b80156103255780601f106102fa57610100808354040283529160200191610325565b820191906000526020600020905b81548152906001019060200180831161030857829003601f168201915b505050505081565b600081600560003373ffffffffffffffffffffffffffffffffffffffff1673ffffffffffffffffffffffffffffffffffffffff16815260200190815260200160002060008573ffffffffffffffffffffffffffffffffffffffff1673ffffffffffffffffffffffffffffffffffffffff168152602001908152602001600020819055508273ffffffffffffffffffffffffffffffffffffffff163373ffffffffffffffffffffffffffffffffffffffff167f8c5be1e5ebec7d5bd14f71427d1e84f3dd0314c0f7b2291e5b200ac8c7c3b9258460405161040d91906111e3565b60405180910390a36001905092915050565b600081600460008673ffffffffffffffffffffffffffffffffffffffff1673ffffffffffffffffffffffffffffffffffffffff1681526020019081526020016000205410156104a3576040517f08c379a000000000000000000000000000000000000000000000000000000000815260040161049a90611163565b60405180910390fd5b81600560008673ffffffffffffffffffffffffffffffffffffffff1673ffffffffffffffffffffffffffffffffffffffff16815260200190815260200160002060003373ffffffffffffffffffffffffffffffffffffffff1673ffffffffffffffffffffffffffffffffffffffff168152602001908152602001600020541015610562576040517f08c379a000000000000000000000000000000000000000000000000000000000815260040161055990611143565b60405180910390fd5b600073ffffffffffffffffffffffffffffffffffffffff168373ffffffffffffffffffffffffffffffffffffffff1614156105d2576040517f08c379a00000000000000000000000000000000000000000000000000000000081526004016105c9906111a3565b60405180910390fd5b81600460008673ffffffffffffffffffffffffffffffffffffffff1673ffffffffffffffffffffffffffffffffffffffff1681526020019081526020016000206000828254610621919061128b565b9250508190555081600460008573ffffffffffffffffffffffffffffffffffffffff1673ffffffffffffffffffffffffffffffffffffffff16815260200190815260200160002060008282546106779190611235565b9250508190555081600560008673ffffffffffffffffffffffffffffffffffffffff1673ffffffffffffffffffffffffffffffffffffffff16815260200190815260200160002060003373ffffffffffffffffffffffffffffffffffffffff1673ffffffffffffffffffffffffffffffffffffffff168152602001908152602001600020600082825461070a919061128b565b925050819055508273ffffffffffffffffffffffffffffffffffffffff168473ffffffffffffffffffffffffffffffffffffffff167fddf252ad1be2c89b69c2b068fc378daa952ba7f163c4a11628f55a4df523b3ef8460405161076e91906111e3565b60405180910390a3600190509392505050565b601281565b6000600360009054906101000a900473ffffffffffffffffffffffffffffffffffffffff1673ffffffffffffffffffffffffffffffffffffffff163373ffffffffffffffffffffffffffffffffffffffff1614806108315750600260009054906101000a900473ffffffffffffffffffffffffffffffffffffffff1673ffffffffffffffffffffffffffffffffffffffff163373ffffffffffffffffffffffffffffffffffffffff16145b610870576040517f08c379a0000000000000000000000000000000000000000000000000000000008152600401610867906111c3565b60405180910390fd5b600073ffffffffffffffffffffffffffffffffffffffff168373ffffffffffffffffffffffffffffffffffffffff1614156108e0576040517f08c379a00000000000000000000000000000000000000000000000000000000081526004016108d7906111a3565b60405180910390fd5b81600460008573ffffffffffffffffffffffffffffffffffffffff1673ffffffffffffffffffffffffffffffffffffffff168152602001908152602001600020600082825461092f9190611235565b925050819055508273ffffffffffffffffffffffffffffffffffffffff16600073ffffffffffffffffffffffffffffffffffffffff167fddf252ad1be2c89b69c2b068fc378daa952ba7f163c4a11628f55a4df523b3ef8460405161099491906111e3565b60405180910390a38273ffffffffffffffffffffffffffffffffffffffff167f0f6798a560793a54c3bcfe86a93cde1e73087d944c0ea20544137d4121396885836040516109e291906111e3565b60405180910390a26001905092915050565b600360009054906101000a900473ffffffffffffffffffffffffffffffffffffffff1681565b6000600260009054906101000a900473ffffffffffffffffffffffffffffffffffffffff1673ffffffffffffffffffffffffffffffffffffffff163373ffffffffffffffffffffffffffffffffffffffff1614610aac576040517f08c379a0000000000000000000000000000000000000000000000000000000008152600401610aa390611183565b60405180910390fd5b81600360006101000a81548173ffffffffffffffffffffffffffffffffffffffff021916908373ffffffffffffffffffffffffffffffffffffffff16021790555060019050919050565b60046020528060005260406000206000915090505481565b600260009054906101000a900473ffffffffffffffffffffffffffffffffffffffff1681565b60018054610b4190611347565b80601f0160208091040260200160405190810160405280929190818152602001828054610b6d90611347565b8015610bba5780601f10610b8f57610100808354040283529160200191610bba565b820191906000526020600020905b815481529060010190602001808311610b9d57829003601f168201915b505050505081565b600081600460003373ffffffffffffffffffffffffffffffffffffffff1673ffffffffffffffffffffffffffffffffffffffff168152602001908152602001600020541015610c46576040517f08c379a0000000000000000000000000000000000000000000000000000000008152600401610c3d90611163565b60405180910390fd5b600073ffffffffffffffffffffffffffffffffffffffff168373ffffffffffffffffffffffffffffffffffffffff161415610cb6576040517f08c379a0000000000000000000000000000000000000000000000000000000008152600401610cad906111a3565b60405180910390fd5b81600460003373ffffffffffffffffffffffffffffffffffffffff1673ffffffffffffffffffffffffffffffffffffffff1681526020019081526020016000206000828254610d05919061128b565b9250508190555081600460008573ffffffffffffffffffffffffffffffffffffffff1673ffffffffffffffffffffffffffffffffffffffff1681526020019081526020016000206000828254610d5b9190611235565b925050819055508273ffffffffffffffffffffffffffffffffffffffff163373ffffffffffffffffffffffffffffffffffffffff167fddf252ad1be2c89b69c2b068fc378daa952ba7f163c4a11628f55a4df523b3ef84604051610dbf91906111e3565b60405180910390a36001905092915050565b6005602052816000526040600020602052806000526040600020600091509150505481565b600081359050610e05816113e8565b92915050565b600081359050610e1a816113ff565b92915050565b600060208284031215610e3257600080fd5b6000610e4084828501610df6565b91505092915050565b60008060408385031215610e5c57600080fd5b6000610e6a85828601610df6565b9250506020610e7b85828601610df6565b9150509250929050565b600080600060608486031215610e9a57600080fd5b6000610ea886828701610df6565b9350506020610eb986828701610df6565b9250506040610eca86828701610e0b565b9150509250925092565b60008060408385031215610ee757600080fd5b6000610ef585828601610df6565b9250506020610f0685828601610e0b565b9150509250929050565b610f19816112bf565b82525050565b610f28816112d1565b82525050565b6000610f3982611219565b610f438185611224565b9350610f53818560208601611314565b610f5c816113d7565b840191505092915050565b6000610f74601683611224565b91507f496e73756666696369656e7420616c6c6f77616e6365000000000000000000006000830152602082019050919050565b6000610fb4601483611224565b91507f496e73756666696369656e742062616c616e63650000000000000000000000006000830152602082019050919050565b6000610ff4601683611224565b91507f4f6e6c79206f776e65722063616e20646f2074686973000000000000000000006000830152602082019050919050565b6000611034601183611224565b91507f496e76616c696420726563697069656e740000000000000000000000000000006000830152602082019050919050565b6000611074602483611224565b91507f4f6e6c79206d617374657263686566206f72206f776e65722063616e20646f2060008301527f74686973000000000000000000000000000000000000000000000000000000006020830152604082019050919050565b6110d6816112fd565b82525050565b6110e581611307565b82525050565b60006020820190506111006000830184610f10565b92915050565b600060208201905061111b6000830184610f1f565b92915050565b6000602082019050818103600083015261113b8184610f2e565b905092915050565b6000602082019050818103600083015261115c81610f67565b9050919050565b6000602082019050818103600083015261117c81610fa7565b9050919050565b6000602082019050818103600083015261119c81610fe7565b9050919050565b600060208201905081810360008301526111bc81611027565b9050919050565b600060208201905081810360008301526111dc81611067565b9050919050565b60006020820190506111f860008301846110cd565b92915050565b600060208201905061121360008301846110dc565b92915050565b600081519050919050565b600082825260208201905092915050565b6000611240826112fd565b915061124b836112fd565b9250827fffffffffffffffffffffffffffffffffffffffffffffffffffffffffffffffff038211156112805761127f611379565b5b828201905092915050565b6000611296826112fd565b91506112a1836112fd565b9250828210156112b4576112b3611379565b5b828203905092915050565b60006112ca826112dd565b9050919050565b60008115159050919050565b600073ffffffffffffffffffffffffffffffffffffffff82169050919050565b6000819050919050565b600060ff82169050919050565b60005b83811015611332578082015181840152602081019050611317565b83811115611341576000848401525b50505050565b6000600282049050600182168061135f57607f821691505b60208210811415611373576113726113a8565b5b50919050565b7f4e487b7100000000000000000000000000000000000000000000000000000000600052601160045260246000fd5b7f4e487b7100000000000000000000000000000000000000000000000000000000600052602260045260246000fd5b6000601f19601f8301169050919050565b6113f1816112bf565b81146113fc57600080fd5b50565b611408816112fd565b811461141357600080fd5b5056fea2646970667358221220c06a6c6ecad506b2e184d30f3c328fde4d40f22fb073cb0921da3f7f5111f37064736f6c63430008000033",
  "immutableReferences": {},
  "source": "// SPDX-License-Identifier: MIT\r\npragma solidity ^0.8.0;\r\n\r\ncontract FarmToken {\r\n    string public name = \"FarmToken\";\r\n    string public symbol = \"FARM\";\r\n    address public owner;\r\n    address public masterChef;\r\n    uint8 public constant decimals = 18;\r\n    mapping(address => uint256) public balanceOf;\r\n    mapping(address => mapping(address => uint256)) public allowance;\r\n\r\n    event Transfer(address indexed from, address indexed to, uint256 value);\r\n    event Approval(\r\n        address indexed owner,\r\n        address indexed spender,\r\n        uint256 value\r\n    );\r\n    event Mint(address indexed to, uint256 value);\r\n\r\n    constructor() {\r\n        owner = msg.sender;\r\n        masterChef = address(0);\r\n    }\r\n\r\n    function updateMasterChef(\r\n        address _address\r\n    ) external onlyOwner returns (bool) {\r\n        masterChef = _address;\r\n        return true;\r\n    }\r\n\r\n    function transfer(address _to, uint256 _value) external returns (bool) {\r\n        require(balanceOf[msg.sender] >= _value, \"Insufficient balance\");\r\n        require(_to != address(0), \"Invalid recipient\");\r\n\r\n        balanceOf[msg.sender] -= _value;\r\n        balanceOf[_to] += _value;\r\n\r\n        emit Transfer(msg.sender, _to, _value);\r\n        return true;\r\n    }\r\n\r\n    function approve(address _spender, uint256 _value) external returns (bool) {\r\n        allowance[msg.sender][_spender] = _value;\r\n\r\n        emit Approval(msg.sender, _spender, _value);\r\n        return true;\r\n    }\r\n\r\n    function transferFrom(\r\n        address _from,\r\n        address _to,\r\n        uint256 _value\r\n    ) external returns (bool) {\r\n        require(balanceOf[_from] >= _value, \"Insufficient balance\");\r\n        require(\r\n            allowance[_from][msg.sender] >= _value,\r\n            \"Insufficient allowance\"\r\n        );\r\n        require(_to != address(0), \"Invalid recipient\");\r\n\r\n        balanceOf[_from] -= _value;\r\n        balanceOf[_to] += _value;\r\n        allowance[_from][msg.sender] -= _value;\r\n\r\n        emit Transfer(_from, _to, _value);\r\n        return true;\r\n    }\r\n\r\n    function mint(address _to, uint256 _value) external returns (bool) {\r\n        require(\r\n            msg.sender == masterChef || msg.sender == owner,\r\n            \"Only masterchef or owner can do this\"\r\n        );\r\n        require(_to != address(0), \"Invalid recipient\");\r\n\r\n        balanceOf[_to] += _value;\r\n\r\n        emit Transfer(address(0), _to, _value);\r\n        emit Mint(_to, _value);\r\n        return true;\r\n    }\r\n\r\n    modifier onlyOwner() {\r\n        require(msg.sender == owner, \"Only owner can do this\");\r\n        _;\r\n    }\r\n}\r\n",
  "sourcePath": "C:\\Users\\Denli\\Desktop\\CodeGod\\Projects\\farming-app\\src\\contracts\\FarmToken.sol",
  "compiler": {
    "name": "solc",
    "version": "0.8.0+commit.c7dfd78e.Emscripten.clang"
  },
  "schemaVersion": "3.4.3",
  "updatedAt": "2023-07-09T02:10:15.134Z",
  "networkType": "ethereum",
  "devdoc": {
    "kind": "dev",
    "methods": {},
    "version": 1
  },
  "userdoc": {
    "kind": "user",
    "methods": {},
    "version": 1
  }
}