{
  "contractName": "FarmMasterChef",
  "abi": [
    {
      "inputs": [
        {
          "internalType": "contract FarmToken",
          "name": "_farm",
          "type": "address"
        }
      ],
      "stateMutability": "nonpayable",
      "type": "constructor"
    },
    {
      "anonymous": false,
      "inputs": [
        {
          "indexed": true,
          "internalType": "address",
          "name": "user",
          "type": "address"
        },
        {
          "indexed": true,
          "internalType": "uint256",
          "name": "pid",
          "type": "uint256"
        },
        {
          "indexed": false,
          "internalType": "uint256",
          "name": "amount",
          "type": "uint256"
        }
      ],
      "name": "Deposit",
      "type": "event"
    },
    {
      "anonymous": false,
      "inputs": [
        {
          "indexed": true,
          "internalType": "address",
          "name": "user",
          "type": "address"
        },
        {
          "indexed": true,
          "internalType": "uint256",
          "name": "pid",
          "type": "uint256"
        },
        {
          "indexed": false,
          "internalType": "uint256",
          "name": "amount",
          "type": "uint256"
        }
      ],
      "name": "EmergencyWithdraw",
      "type": "event"
    },
    {
      "anonymous": false,
      "inputs": [
        {
          "indexed": true,
          "internalType": "address",
          "name": "user",
          "type": "address"
        },
        {
          "indexed": true,
          "internalType": "uint256",
          "name": "pid",
          "type": "uint256"
        },
        {
          "indexed": false,
          "internalType": "uint256",
          "name": "amount",
          "type": "uint256"
        }
      ],
      "name": "Withdraw",
      "type": "event"
    },
    {
      "inputs": [],
      "name": "farm",
      "outputs": [
        {
          "internalType": "contract FarmToken",
          "name": "",
          "type": "address"
        }
      ],
      "stateMutability": "view",
      "type": "function",
      "constant": true
    },
    {
      "inputs": [],
      "name": "farmPerBlock",
      "outputs": [
        {
          "internalType": "uint256",
          "name": "",
          "type": "uint256"
        }
      ],
      "stateMutability": "view",
      "type": "function",
      "constant": true
    },
    {
      "inputs": [],
      "name": "owner",
      "outputs": [
        {
          "internalType": "address",
          "name": "",
          "type": "address"
        }
      ],
      "stateMutability": "view",
      "type": "function",
      "constant": true
    },
    {
      "inputs": [
        {
          "internalType": "uint256",
          "name": "",
          "type": "uint256"
        }
      ],
      "name": "poolInfo",
      "outputs": [
        {
          "internalType": "contract IERC20",
          "name": "lpToken",
          "type": "address"
        },
        {
          "internalType": "uint256",
          "name": "allocPoint",
          "type": "uint256"
        },
        {
          "internalType": "uint256",
          "name": "lastRewardBlock",
          "type": "uint256"
        },
        {
          "internalType": "uint256",
          "name": "accFarmPerShare",
          "type": "uint256"
        }
      ],
      "stateMutability": "view",
      "type": "function",
      "constant": true
    },
    {
      "inputs": [],
      "name": "totalAllocPoint",
      "outputs": [
        {
          "internalType": "uint256",
          "name": "",
          "type": "uint256"
        }
      ],
      "stateMutability": "view",
      "type": "function",
      "constant": true
    },
    {
      "inputs": [
        {
          "internalType": "uint256",
          "name": "",
          "type": "uint256"
        },
        {
          "internalType": "address",
          "name": "",
          "type": "address"
        }
      ],
      "name": "userInfo",
      "outputs": [
        {
          "internalType": "uint256",
          "name": "amount",
          "type": "uint256"
        },
        {
          "internalType": "uint256",
          "name": "rewardDebt",
          "type": "uint256"
        }
      ],
      "stateMutability": "view",
      "type": "function",
      "constant": true
    },
    {
      "inputs": [],
      "name": "poolLength",
      "outputs": [
        {
          "internalType": "uint256",
          "name": "",
          "type": "uint256"
        }
      ],
      "stateMutability": "view",
      "type": "function",
      "constant": true
    },
    {
      "inputs": [
        {
          "internalType": "uint256",
          "name": "_allocPoint",
          "type": "uint256"
        },
        {
          "internalType": "contract IERC20",
          "name": "_lpToken",
          "type": "address"
        },
        {
          "internalType": "bool",
          "name": "_withUpdate",
          "type": "bool"
        }
      ],
      "name": "add",
      "outputs": [],
      "stateMutability": "nonpayable",
      "type": "function"
    },
    {
      "inputs": [
        {
          "internalType": "uint256",
          "name": "_pid",
          "type": "uint256"
        },
        {
          "internalType": "uint256",
          "name": "_allocPoint",
          "type": "uint256"
        },
        {
          "internalType": "bool",
          "name": "_withUpdate",
          "type": "bool"
        }
      ],
      "name": "set",
      "outputs": [],
      "stateMutability": "nonpayable",
      "type": "function"
    },
    {
      "inputs": [
        {
          "internalType": "uint256",
          "name": "_pid",
          "type": "uint256"
        },
        {
          "internalType": "address",
          "name": "_user",
          "type": "address"
        }
      ],
      "name": "pendingFarm",
      "outputs": [
        {
          "internalType": "uint256",
          "name": "",
          "type": "uint256"
        }
      ],
      "stateMutability": "view",
      "type": "function",
      "constant": true
    },
    {
      "inputs": [],
      "name": "massUpdatePools",
      "outputs": [],
      "stateMutability": "nonpayable",
      "type": "function"
    },
    {
      "inputs": [
        {
          "internalType": "uint256",
          "name": "_pid",
          "type": "uint256"
        }
      ],
      "name": "updatePool",
      "outputs": [],
      "stateMutability": "nonpayable",
      "type": "function"
    },
    {
      "inputs": [
        {
          "internalType": "uint256",
          "name": "_pid",
          "type": "uint256"
        },
        {
          "internalType": "uint256",
          "name": "_amount",
          "type": "uint256"
        }
      ],
      "name": "deposit",
      "outputs": [],
      "stateMutability": "nonpayable",
      "type": "function"
    },
    {
      "inputs": [
        {
          "internalType": "uint256",
          "name": "_pid",
          "type": "uint256"
        },
        {
          "internalType": "uint256",
          "name": "_amount",
          "type": "uint256"
        }
      ],
      "name": "withdraw",
      "outputs": [],
      "stateMutability": "nonpayable",
      "type": "function"
    }
  ],
  "bytecode": "0x6080604052680ad78ebc5ac620000060015560006004553480156200002357600080fd5b5060405162001bcf38038062001bcf8339818101604052810190620000499190620000e8565b806000806101000a81548173ffffffffffffffffffffffffffffffffffffffff021916908373ffffffffffffffffffffffffffffffffffffffff16021790555033600560006101000a81548173ffffffffffffffffffffffffffffffffffffffff021916908373ffffffffffffffffffffffffffffffffffffffff1602179055505062000176565b600081519050620000e2816200015c565b92915050565b600060208284031215620000fb57600080fd5b60006200010b84828501620000d1565b91505092915050565b600062000121826200013c565b9050919050565b6000620001358262000114565b9050919050565b600073ffffffffffffffffffffffffffffffffffffffff82169050919050565b620001678162000128565b81146200017357600080fd5b50565b611a4980620001866000396000f3fe608060405234801561001057600080fd5b50600436106100ea5760003560e01c80635ed8952a1161008c5780638da5cb5b116100665780638da5cb5b1461022657806393f1a40b14610244578063e280c9ec14610275578063e2bbb15814610293576100ea565b80635ed8952a146101d0578063630b5ba11461020057806364482f791461020a576100ea565b80631eaaa045116100c85780631eaaa0451461015e57806336e9332d1461017a578063441a3e701461019857806351eb05a6146101b4576100ea565b8063081e3eda146100ef5780631526fe271461010d57806317caf6f114610140575b600080fd5b6100f76102af565b6040516101049190611704565b60405180910390f35b61012760048036038101906101229190611319565b6102bc565b604051610137949392919061165f565b60405180910390f35b61014861031c565b6040516101559190611704565b60405180910390f35b610178600480360381019061017391906113a7565b610322565b005b6101826104af565b60405161018f9190611644565b60405180910390f35b6101b260048036038101906101ad91906113f6565b6104d3565b005b6101ce60048036038101906101c99190611319565b610753565b005b6101ea60048036038101906101e5919061136b565b610991565b6040516101f79190611704565b60405180910390f35b610208610b8e565b005b610224600480360381019061021f9190611432565b610bc1565b005b61022e610daf565b60405161023b91906115c9565b60405180910390f35b61025e6004803603810190610259919061136b565b610dd5565b60405161026c92919061171f565b60405180910390f35b61027d610e06565b60405161028a9190611704565b60405180910390f35b6102ad60048036038101906102a891906113f6565b610e0c565b005b6000600280549050905090565b600281815481106102cc57600080fd5b90600052602060002090600402016000915090508060000160009054906101000a900473ffffffffffffffffffffffffffffffffffffffff16908060010154908060020154908060030154905084565b60045481565b600560009054906101000a900473ffffffffffffffffffffffffffffffffffffffff1673ffffffffffffffffffffffffffffffffffffffff163373ffffffffffffffffffffffffffffffffffffffff16146103b2576040517f08c379a00000000000000000000000000000000000000000000000000000000081526004016103a9906116e4565b60405180910390fd5b80156103c1576103c0610b8e565b5b600043905083600460008282546103d89190611759565b92505081905550600260405180608001604052808573ffffffffffffffffffffffffffffffffffffffff1681526020018681526020018381526020016000815250908060018154018082558091505060019003906000526020600020906004020160009091909190915060008201518160000160006101000a81548173ffffffffffffffffffffffffffffffffffffffff021916908373ffffffffffffffffffffffffffffffffffffffff160217905550602082015181600101556040820151816002015560608201518160030155505050505050565b60008054906101000a900473ffffffffffffffffffffffffffffffffffffffff1681565b60006002838154811061050f577f4e487b7100000000000000000000000000000000000000000000000000000000600052603260045260246000fd5b9060005260206000209060040201905060006003600085815260200190815260200160002060003373ffffffffffffffffffffffffffffffffffffffff1673ffffffffffffffffffffffffffffffffffffffff168152602001908152602001600020905082816000015410156105ba576040517f08c379a00000000000000000000000000000000000000000000000000000000081526004016105b1906116c4565b60405180910390fd5b6105c384610753565b6000816001015464e8d4a51000846003015484600001546105e491906117e0565b6105ee91906117af565b6105f8919061183a565b90506106043382611055565b83826000016000828254610618919061183a565b9250508190555064e8d4a510008360030154836000015461063991906117e0565b61064391906117af565b82600101819055508260000160009054906101000a900473ffffffffffffffffffffffffffffffffffffffff1673ffffffffffffffffffffffffffffffffffffffff1663a9059cbb33866040518363ffffffff1660e01b81526004016106aa92919061161b565b602060405180830381600087803b1580156106c457600080fd5b505af11580156106d8573d6000803e3d6000fd5b505050506040513d601f19601f820116820180604052508101906106fc91906112f0565b50843373ffffffffffffffffffffffffffffffffffffffff167ff279e6a1f5e320cca91135676d9cb6e44ca8a08c0b88342bcdb1144f6511b568866040516107449190611704565b60405180910390a35050505050565b60006002828154811061078f577f4e487b7100000000000000000000000000000000000000000000000000000000600052603260045260246000fd5b90600052602060002090600402019050806002015443116107b0575061098e565b60008160000160009054906101000a900473ffffffffffffffffffffffffffffffffffffffff1673ffffffffffffffffffffffffffffffffffffffff166370a08231306040518263ffffffff1660e01b815260040161080f91906115c9565b60206040518083038186803b15801561082757600080fd5b505afa15801561083b573d6000803e3d6000fd5b505050506040513d601f19601f8201168201806040525081019061085f9190611342565b9050600081141561087a57438260020181905550505061098e565b6000600454836001015460015461089191906117e0565b61089b91906117af565b905060008054906101000a900473ffffffffffffffffffffffffffffffffffffffff1673ffffffffffffffffffffffffffffffffffffffff166340c10f1930836040518363ffffffff1660e01b81526004016108f892919061161b565b602060405180830381600087803b15801561091257600080fd5b505af1158015610926573d6000803e3d6000fd5b505050506040513d601f19601f8201168201806040525081019061094a91906112f0565b508164e8d4a510008261095d91906117e0565b61096791906117af565b83600301600082825461097a9190611759565b925050819055504383600201819055505050505b50565b600080600284815481106109ce577f4e487b7100000000000000000000000000000000000000000000000000000000600052603260045260246000fd5b9060005260206000209060040201905060006003600086815260200190815260200160002060008573ffffffffffffffffffffffffffffffffffffffff1673ffffffffffffffffffffffffffffffffffffffff168152602001908152602001600020905060008260030154905060008360000160009054906101000a900473ffffffffffffffffffffffffffffffffffffffff1673ffffffffffffffffffffffffffffffffffffffff166370a08231306040518263ffffffff1660e01b8152600401610a9a91906115c9565b60206040518083038186803b158015610ab257600080fd5b505afa158015610ac6573d6000803e3d6000fd5b505050506040513d601f19601f82011682018060405250810190610aea9190611342565b9050836002015443118015610b00575060008114155b15610b535760006004548560010154600154610b1c91906117e0565b610b2691906117af565b90508164e8d4a5100082610b3a91906117e0565b610b4491906117af565b83610b4f9190611759565b9250505b826001015464e8d4a51000838560000154610b6e91906117e0565b610b7891906117af565b610b82919061183a565b94505050505092915050565b6000600280549050905060005b81811015610bbd57610bac81610753565b80610bb690611910565b9050610b9b565b5050565b600560009054906101000a900473ffffffffffffffffffffffffffffffffffffffff1673ffffffffffffffffffffffffffffffffffffffff163373ffffffffffffffffffffffffffffffffffffffff1614610c51576040517f08c379a0000000000000000000000000000000000000000000000000000000008152600401610c48906116e4565b60405180910390fd5b8015610c6057610c5f610b8e565b5b60028381548110610c9a577f4e487b7100000000000000000000000000000000000000000000000000000000600052603260045260246000fd5b9060005260206000209060040201600101546004541015610cf0576040517f08c379a0000000000000000000000000000000000000000000000000000000008152600401610ce7906116a4565b60405180910390fd5b8160028481548110610d2b577f4e487b7100000000000000000000000000000000000000000000000000000000600052603260045260246000fd5b906000526020600020906004020160010154600454610d4a919061183a565b610d549190611759565b6004819055508160028481548110610d95577f4e487b7100000000000000000000000000000000000000000000000000000000600052603260045260246000fd5b906000526020600020906004020160010181905550505050565b600560009054906101000a900473ffffffffffffffffffffffffffffffffffffffff1681565b6003602052816000526040600020602052806000526040600020600091509150508060000154908060010154905082565b60015481565b600060028381548110610e48577f4e487b7100000000000000000000000000000000000000000000000000000000600052603260045260246000fd5b9060005260206000209060040201905060006003600085815260200190815260200160002060003373ffffffffffffffffffffffffffffffffffffffff1673ffffffffffffffffffffffffffffffffffffffff1681526020019081526020016000209050610eb584610753565b600081600001541115610f05576000816001015464e8d4a5100084600301548460000154610ee391906117e0565b610eed91906117af565b610ef7919061183a565b9050610f033382611055565b505b8160000160009054906101000a900473ffffffffffffffffffffffffffffffffffffffff1673ffffffffffffffffffffffffffffffffffffffff166323b872dd3330866040518463ffffffff1660e01b8152600401610f66939291906115e4565b602060405180830381600087803b158015610f8057600080fd5b505af1158015610f94573d6000803e3d6000fd5b505050506040513d601f19601f82011682018060405250810190610fb891906112f0565b5082816000016000828254610fcd9190611759565b9250508190555064e8d4a5100082600301548260000154610fee91906117e0565b610ff891906117af565b8160010181905550833373ffffffffffffffffffffffffffffffffffffffff167f90890809c654f11d6e72a28fa60149770a0d11ec6c92319d6ceb2bb0a4ea1a15856040516110479190611704565b60405180910390a350505050565b60008060009054906101000a900473ffffffffffffffffffffffffffffffffffffffff1673ffffffffffffffffffffffffffffffffffffffff166370a08231306040518263ffffffff1660e01b81526004016110b191906115c9565b60206040518083038186803b1580156110c957600080fd5b505afa1580156110dd573d6000803e3d6000fd5b505050506040513d601f19601f820116820180604052508101906111019190611342565b9050808211156111be5760008054906101000a900473ffffffffffffffffffffffffffffffffffffffff1673ffffffffffffffffffffffffffffffffffffffff1663a9059cbb84836040518363ffffffff1660e01b815260040161116692919061161b565b602060405180830381600087803b15801561118057600080fd5b505af1158015611194573d6000803e3d6000fd5b505050506040513d601f19601f820116820180604052508101906111b891906112f0565b5061126d565b60008054906101000a900473ffffffffffffffffffffffffffffffffffffffff1673ffffffffffffffffffffffffffffffffffffffff1663a9059cbb84846040518363ffffffff1660e01b815260040161121992919061161b565b602060405180830381600087803b15801561123357600080fd5b505af1158015611247573d6000803e3d6000fd5b505050506040513d601f19601f8201168201806040525081019061126b91906112f0565b505b505050565b600081359050611281816119b7565b92915050565b600081359050611296816119ce565b92915050565b6000815190506112ab816119ce565b92915050565b6000813590506112c0816119e5565b92915050565b6000813590506112d5816119fc565b92915050565b6000815190506112ea816119fc565b92915050565b60006020828403121561130257600080fd5b60006113108482850161129c565b91505092915050565b60006020828403121561132b57600080fd5b6000611339848285016112c6565b91505092915050565b60006020828403121561135457600080fd5b6000611362848285016112db565b91505092915050565b6000806040838503121561137e57600080fd5b600061138c858286016112c6565b925050602061139d85828601611272565b9150509250929050565b6000806000606084860312156113bc57600080fd5b60006113ca868287016112c6565b93505060206113db868287016112b1565b92505060406113ec86828701611287565b9150509250925092565b6000806040838503121561140957600080fd5b6000611417858286016112c6565b9250506020611428858286016112c6565b9150509250929050565b60008060006060848603121561144757600080fd5b6000611455868287016112c6565b9350506020611466868287016112c6565b925050604061147786828701611287565b9150509250925092565b61148a8161186e565b82525050565b611499816118c8565b82525050565b6114a8816118ec565b82525050565b60006114bb602783611748565b91507f506f6f6c277320616c6c6f63506f696e7420697320677265617465722074686160008301527f6e20746f74616c000000000000000000000000000000000000000000000000006020830152604082019050919050565b6000611521602d83611748565b91507f576974686472617720616d6f756e742067726561746572207468616e2064657060008301527f6f736974656420616d6f756e74000000000000000000000000000000000000006020830152604082019050919050565b6000611587601683611748565b91507f4f6e6c79206f776e65722063616e20646f2074686973000000000000000000006000830152602082019050919050565b6115c3816118be565b82525050565b60006020820190506115de6000830184611481565b92915050565b60006060820190506115f96000830186611481565b6116066020830185611481565b61161360408301846115ba565b949350505050565b60006040820190506116306000830185611481565b61163d60208301846115ba565b9392505050565b60006020820190506116596000830184611490565b92915050565b6000608082019050611674600083018761149f565b61168160208301866115ba565b61168e60408301856115ba565b61169b60608301846115ba565b95945050505050565b600060208201905081810360008301526116bd816114ae565b9050919050565b600060208201905081810360008301526116dd81611514565b9050919050565b600060208201905081810360008301526116fd8161157a565b9050919050565b600060208201905061171960008301846115ba565b92915050565b600060408201905061173460008301856115ba565b61174160208301846115ba565b9392505050565b600082825260208201905092915050565b6000611764826118be565b915061176f836118be565b9250827fffffffffffffffffffffffffffffffffffffffffffffffffffffffffffffffff038211156117a4576117a3611959565b5b828201905092915050565b60006117ba826118be565b91506117c5836118be565b9250826117d5576117d4611988565b5b828204905092915050565b60006117eb826118be565b91506117f6836118be565b9250817fffffffffffffffffffffffffffffffffffffffffffffffffffffffffffffffff048311821515161561182f5761182e611959565b5b828202905092915050565b6000611845826118be565b9150611850836118be565b92508282101561186357611862611959565b5b828203905092915050565b60006118798261189e565b9050919050565b60008115159050919050565b60006118978261186e565b9050919050565b600073ffffffffffffffffffffffffffffffffffffffff82169050919050565b6000819050919050565b60006118d3826118da565b9050919050565b60006118e58261189e565b9050919050565b60006118f7826118fe565b9050919050565b60006119098261189e565b9050919050565b600061191b826118be565b91507fffffffffffffffffffffffffffffffffffffffffffffffffffffffffffffffff82141561194e5761194d611959565b5b600182019050919050565b7f4e487b7100000000000000000000000000000000000000000000000000000000600052601160045260246000fd5b7f4e487b7100000000000000000000000000000000000000000000000000000000600052601260045260246000fd5b6119c08161186e565b81146119cb57600080fd5b50565b6119d781611880565b81146119e257600080fd5b50565b6119ee8161188c565b81146119f957600080fd5b50565b611a05816118be565b8114611a1057600080fd5b5056fea264697066735822122087e2e72270fb30ef428226fd84ecc2fc31b10b92a740d5e994305b984690c83164736f6c63430008000033",
  "immutableReferences": {},
  "source": "// SPDX-License-Identifier: MIT\r\npragma solidity ^0.8.0;\r\n\r\nimport \"./FarmToken.sol\";\r\nimport \"./IERC20.sol\";\r\n\r\ncontract FarmMasterChef {\r\n    struct UserInfo {\r\n        uint256 amount; // How many LP tokens the user has provided.\r\n        uint256 rewardDebt;\r\n    }\r\n\r\n    struct PoolInfo {\r\n        IERC20 lpToken; // Address of LP token contract.\r\n        uint256 allocPoint; // How many allocation points assigned to this pool. farms to distribute per block.\r\n        uint256 lastRewardBlock; // Last block number that farms distribution occurs.\r\n        uint256 accFarmPerShare; // Accumulated SUSHIs per share, times 1e12 (for more precision)\r\n    }\r\n\r\n    FarmToken public farm;\r\n    // farm tokens created per block.\r\n    uint256 public farmPerBlock = 200 * 10 ** 18; // 200 Farm tokens per block\r\n\r\n    // Info of each pool.\r\n    PoolInfo[] public poolInfo;\r\n    // Info of each user that stakes LP tokens.\r\n    mapping(uint256 => mapping(address => UserInfo)) public userInfo;\r\n    // Total allocation points in all pools.\r\n    uint256 public totalAllocPoint = 0;\r\n    address public owner;\r\n\r\n    event Deposit(address indexed user, uint256 indexed pid, uint256 amount);\r\n    event Withdraw(address indexed user, uint256 indexed pid, uint256 amount);\r\n    event EmergencyWithdraw(\r\n        address indexed user,\r\n        uint256 indexed pid,\r\n        uint256 amount\r\n    );\r\n\r\n    constructor(FarmToken _farm) {\r\n        farm = _farm; // FarmToken Address\r\n        owner = msg.sender;\r\n    }\r\n\r\n    function poolLength() external view returns (uint256) {\r\n        return poolInfo.length;\r\n    }\r\n\r\n    // Add a new lp to the pool.\r\n    // DO NOT add the same LP token more than once.\r\n    function add(\r\n        uint256 _allocPoint,\r\n        IERC20 _lpToken,\r\n        bool _withUpdate\r\n    ) public onlyOwner {\r\n        if (_withUpdate) {\r\n            massUpdatePools();\r\n        }\r\n        uint256 lastRewardBlock = block.number;\r\n        totalAllocPoint += _allocPoint;\r\n        poolInfo.push(\r\n            PoolInfo({\r\n                lpToken: _lpToken,\r\n                allocPoint: _allocPoint,\r\n                lastRewardBlock: lastRewardBlock,\r\n                accFarmPerShare: 0\r\n            })\r\n        );\r\n    }\r\n\r\n    // Update the given pool's farm allocation point.\r\n    function set(\r\n        uint256 _pid,\r\n        uint256 _allocPoint,\r\n        bool _withUpdate\r\n    ) public onlyOwner {\r\n        if (_withUpdate) {\r\n            massUpdatePools();\r\n        }\r\n        require(\r\n            totalAllocPoint >= poolInfo[_pid].allocPoint,\r\n            \"Pool's allocPoint is greater than total\"\r\n        );\r\n        totalAllocPoint =\r\n            totalAllocPoint -\r\n            (poolInfo[_pid].allocPoint) +\r\n            (_allocPoint);\r\n        poolInfo[_pid].allocPoint = _allocPoint;\r\n    }\r\n\r\n    // View function to see pending farms on frontend.\r\n    function pendingFarm(\r\n        uint256 _pid,\r\n        address _user\r\n    ) external view returns (uint256) {\r\n        PoolInfo storage pool = poolInfo[_pid];\r\n        UserInfo storage user = userInfo[_pid][_user];\r\n        uint256 accFarmPerShare = pool.accFarmPerShare;\r\n        uint256 lpSupply = pool.lpToken.balanceOf(address(this));\r\n        if (block.number > pool.lastRewardBlock && lpSupply != 0) {\r\n            uint256 farmReward = (farmPerBlock * (pool.allocPoint)) /\r\n                (totalAllocPoint);\r\n            accFarmPerShare += ((farmReward * (1e12)) / (lpSupply));\r\n        }\r\n        return (user.amount * accFarmPerShare) / 1e12 - user.rewardDebt;\r\n    }\r\n\r\n    // Update reward vairables for all pools. Be careful of gas spending!\r\n    function massUpdatePools() public {\r\n        uint256 length = poolInfo.length;\r\n        for (uint256 pid = 0; pid < length; ++pid) {\r\n            updatePool(pid);\r\n        }\r\n    }\r\n\r\n    // Update reward variables of the given pool to be up-to-date.\r\n    function updatePool(uint256 _pid) public {\r\n        PoolInfo storage pool = poolInfo[_pid];\r\n        if (block.number <= pool.lastRewardBlock) {\r\n            return;\r\n        }\r\n        uint256 lpSupply = pool.lpToken.balanceOf(address(this));\r\n        if (lpSupply == 0) {\r\n            pool.lastRewardBlock = block.number;\r\n            return;\r\n        }\r\n        uint256 farmReward = (farmPerBlock * (pool.allocPoint)) /\r\n            (totalAllocPoint);\r\n\r\n        farm.mint(address(this), farmReward);\r\n        pool.accFarmPerShare += (farmReward * 1e12) / lpSupply;\r\n        pool.lastRewardBlock = block.number;\r\n    }\r\n\r\n    // Deposit LP tokens to MasterChef to earn FARM Tokens\r\n    function deposit(uint256 _pid, uint256 _amount) public {\r\n        PoolInfo storage pool = poolInfo[_pid];\r\n        UserInfo storage user = userInfo[_pid][msg.sender];\r\n        updatePool(_pid);\r\n        if (user.amount > 0) {\r\n            uint256 pending = ((user.amount * pool.accFarmPerShare) / 1e12) -\r\n                user.rewardDebt;\r\n            safeFarmTransfer(msg.sender, pending);\r\n        }\r\n        pool.lpToken.transferFrom(address(msg.sender), address(this), _amount);\r\n        user.amount += (_amount);\r\n        user.rewardDebt = (user.amount * (pool.accFarmPerShare)) / (1e12);\r\n        emit Deposit(msg.sender, _pid, _amount);\r\n    }\r\n\r\n    // Withdraw LP tokens from MasterChef.\r\n    // If only want to \"claim\" rewards, put _amount as 0.\r\n    // Note: Whenever withdraw function is called, users will receive their rewards too\r\n    // regardless of the amount that they withdraw\r\n    function withdraw(uint256 _pid, uint256 _amount) public {\r\n        PoolInfo storage pool = poolInfo[_pid];\r\n        UserInfo storage user = userInfo[_pid][msg.sender];\r\n        require(user.amount >= _amount, \"Withdraw amount greater than deposited amount\");\r\n        updatePool(_pid);\r\n        uint256 pending = (user.amount * (pool.accFarmPerShare)) /\r\n            (1e12) -\r\n            (user.rewardDebt);\r\n        safeFarmTransfer(msg.sender, pending);\r\n        user.amount -= (_amount);\r\n        user.rewardDebt = (user.amount * (pool.accFarmPerShare)) / (1e12);\r\n        pool.lpToken.transfer(address(msg.sender), _amount);\r\n        emit Withdraw(msg.sender, _pid, _amount);\r\n    }\r\n\r\n    // Safe farm transfer function, just in case if rounding error causes pool to not have enough farms.\r\n    function safeFarmTransfer(address _to, uint256 _amount) internal {\r\n        uint256 farmBal = farm.balanceOf(address(this));\r\n        if (_amount > farmBal) {\r\n            farm.transfer(_to, farmBal);\r\n        } else {\r\n            farm.transfer(_to, _amount);\r\n        }\r\n    }\r\n\r\n    modifier onlyOwner() {\r\n        require(msg.sender == owner, \"Only owner can do this\");\r\n        _;\r\n    }\r\n}\r\n\r\n// 42 -> 45 block\r\n",
  "sourcePath": "C:\\Users\\Denli\\Desktop\\CodeGod\\Projects\\farming-app\\src\\contracts\\FarmMasterChef.sol",
  "compiler": {
    "name": "solc",
    "version": "0.8.0+commit.c7dfd78e.Emscripten.clang"
  },
  "schemaVersion": "3.4.3",
  "updatedAt": "2023-07-09T02:10:15.143Z",
  "networkType": "ethereum",
  "devdoc": {
    "kind": "dev",
    "methods": {},
    "version": 1
  },
  "userdoc": {
    "kind": "user",
    "methods": {},
    "version": 1
  }
}