{
  "contractName": "FarmFactory",
  "abi": [
    {
      "inputs": [],
      "stateMutability": "nonpayable",
      "type": "constructor"
    },
    {
      "anonymous": false,
      "inputs": [
        {
          "indexed": false,
          "internalType": "address",
          "name": "pool",
          "type": "address"
        }
      ],
      "name": "PoolCreated",
      "type": "event"
    },
    {
      "inputs": [
        {
          "internalType": "uint256",
          "name": "",
          "type": "uint256"
        }
      ],
      "name": "lpTokens",
      "outputs": [
        {
          "internalType": "address",
          "name": "",
          "type": "address"
        }
      ],
      "stateMutability": "view",
      "type": "function",
      "constant": true
    },
    {
      "inputs": [],
      "name": "owner",
      "outputs": [
        {
          "internalType": "address",
          "name": "",
          "type": "address"
        }
      ],
      "stateMutability": "view",
      "type": "function",
      "constant": true
    },
    {
      "inputs": [
        {
          "internalType": "string",
          "name": "_name",
          "type": "string"
        },
        {
          "internalType": "string",
          "name": "_symbol",
          "type": "string"
        }
      ],
      "name": "createPool",
      "outputs": [
        {
          "internalType": "address",
          "name": "",
          "type": "address"
        }
      ],
      "stateMutability": "nonpayable",
      "type": "function"
    },
    {
      "inputs": [
        {
          "internalType": "uint256",
          "name": "_lpTokenNum",
          "type": "uint256"
        },
        {
          "internalType": "uint256",
          "name": "_amount",
          "type": "uint256"
        },
        {
          "internalType": "address",
          "name": "_to",
          "type": "address"
        }
      ],
      "name": "mintPoolTokens",
      "outputs": [
        {
          "internalType": "bool",
          "name": "",
          "type": "bool"
        }
      ],
      "stateMutability": "nonpayable",
      "type": "function"
    }
  ],
  "bytecode": "0x608060405234801561001057600080fd5b50336000806101000a81548173ffffffffffffffffffffffffffffffffffffffff021916908373ffffffffffffffffffffffffffffffffffffffff160217905550612004806100606000396000f3fe60806040523480156200001157600080fd5b5060043610620000525760003560e01c80631bb5e2dc14620000575780635ea81a32146200008d5780638da5cb5b14620000c3578063ab98e9ca14620000e5575b600080fd5b6200007560048036038101906200006f91906200063e565b6200011b565b604051620000849190620007b8565b60405180910390f35b620000ab6004803603810190620000a59190620005cb565b6200015b565b604051620000ba9190620007b8565b60405180910390f35b620000cd620002d4565b604051620000dc9190620007b8565b60405180910390f35b620001036004803603810190620000fd91906200066a565b620002f8565b60405162000112919062000802565b60405180910390f35b600181815481106200012c57600080fd5b906000526020600020016000915054906101000a900473ffffffffffffffffffffffffffffffffffffffff1681565b60008060009054906101000a900473ffffffffffffffffffffffffffffffffffffffff1673ffffffffffffffffffffffffffffffffffffffff163373ffffffffffffffffffffffffffffffffffffffff1614620001ef576040517f08c379a0000000000000000000000000000000000000000000000000000000008152600401620001e6906200087c565b60405180910390fd5b600083836040516200020190620004da565b6200020e9291906200081f565b604051809103906000f0801580156200022b573d6000803e3d6000fd5b5090506001819080600181540180825580915050600190039060005260206000200160009091909190916101000a81548173ffffffffffffffffffffffffffffffffffffffff021916908373ffffffffffffffffffffffffffffffffffffffff1602179055507f83a48fbcfc991335314e74d0496aab6a1987e992ddc85dddbcc4d6dd6ef2e9fc81604051620002c29190620007b8565b60405180910390a18091505092915050565b60008054906101000a900473ffffffffffffffffffffffffffffffffffffffff1681565b60008060009054906101000a900473ffffffffffffffffffffffffffffffffffffffff1673ffffffffffffffffffffffffffffffffffffffff163373ffffffffffffffffffffffffffffffffffffffff16146200038c576040517f08c379a000000000000000000000000000000000000000000000000000000000815260040162000383906200087c565b60405180910390fd5b6001805490508410620003d6576040517f08c379a0000000000000000000000000000000000000000000000000000000008152600401620003cd906200085a565b60405180910390fd5b6001848154811062000411577f4e487b7100000000000000000000000000000000000000000000000000000000600052603260045260246000fd5b9060005260206000200160009054906101000a900473ffffffffffffffffffffffffffffffffffffffff1673ffffffffffffffffffffffffffffffffffffffff166340c10f1983856040518363ffffffff1660e01b815260040162000478929190620007d5565b602060405180830381600087803b1580156200049357600080fd5b505af1158015620004a8573d6000803e3d6000fd5b505050506040513d601f19601f82011682018060405250810190620004ce91906200059f565b50600190509392505050565b6115908062000a3f83390190565b6000620004ff620004f984620008d2565b6200089e565b9050828152602081018484840111156200051857600080fd5b620005258482856200096b565b509392505050565b6000813590506200053e81620009f0565b92915050565b600081519050620005558162000a0a565b92915050565b600082601f8301126200056d57600080fd5b81356200057f848260208601620004e8565b91505092915050565b600081359050620005998162000a24565b92915050565b600060208284031215620005b257600080fd5b6000620005c28482850162000544565b91505092915050565b60008060408385031215620005df57600080fd5b600083013567ffffffffffffffff811115620005fa57600080fd5b62000608858286016200055b565b925050602083013567ffffffffffffffff8111156200062657600080fd5b62000634858286016200055b565b9150509250929050565b6000602082840312156200065157600080fd5b6000620006618482850162000588565b91505092915050565b6000806000606084860312156200068057600080fd5b6000620006908682870162000588565b9350506020620006a38682870162000588565b9250506040620006b6868287016200052d565b9150509250925092565b620006cb8162000921565b82525050565b620006dc8162000935565b82525050565b6000620006ef8262000905565b620006fb818562000910565b93506200070d8185602086016200097a565b6200071881620009df565b840191505092915050565b600062000732600a8362000910565b91507f496e76616c6964204964000000000000000000000000000000000000000000006000830152602082019050919050565b60006200077460188362000910565b91507f4f6e6c79206f776e65722063616e2063616c6c207468697300000000000000006000830152602082019050919050565b620007b28162000961565b82525050565b6000602082019050620007cf6000830184620006c0565b92915050565b6000604082019050620007ec6000830185620006c0565b620007fb6020830184620007a7565b9392505050565b6000602082019050620008196000830184620006d1565b92915050565b600060408201905081810360008301526200083b8185620006e2565b90508181036020830152620008518184620006e2565b90509392505050565b60006020820190508181036000830152620008758162000723565b9050919050565b60006020820190508181036000830152620008978162000765565b9050919050565b6000604051905081810181811067ffffffffffffffff82111715620008c857620008c7620009b0565b5b8060405250919050565b600067ffffffffffffffff821115620008f057620008ef620009b0565b5b601f19601f8301169050602081019050919050565b600081519050919050565b600082825260208201905092915050565b60006200092e8262000941565b9050919050565b60008115159050919050565b600073ffffffffffffffffffffffffffffffffffffffff82169050919050565b6000819050919050565b82818337600083830152505050565b60005b838110156200099a5780820151818401526020810190506200097d565b83811115620009aa576000848401525b50505050565b7f4e487b7100000000000000000000000000000000000000000000000000000000600052604160045260246000fd5b6000601f19601f8301169050919050565b620009fb8162000921565b811462000a0757600080fd5b50565b62000a158162000935565b811462000a2157600080fd5b50565b62000a2f8162000961565b811462000a3b57600080fd5b5056fe60806040523480156200001157600080fd5b5060405162001590380380620015908339818101604052810190620000379190620001d4565b81600090805190602001906200004f929190620000b2565b50806001908051906020019062000068929190620000b2565b5033600260006101000a81548173ffffffffffffffffffffffffffffffffffffffff021916908373ffffffffffffffffffffffffffffffffffffffff160217905550505062000378565b828054620000c090620002e4565b90600052602060002090601f016020900481019282620000e4576000855562000130565b82601f10620000ff57805160ff191683800117855562000130565b8280016001018555821562000130579182015b828111156200012f57825182559160200191906001019062000112565b5b5090506200013f919062000143565b5090565b5b808211156200015e57600081600090555060010162000144565b5090565b60006200017962000173846200027b565b62000247565b9050828152602081018484840111156200019257600080fd5b6200019f848285620002ae565b509392505050565b600082601f830112620001b957600080fd5b8151620001cb84826020860162000162565b91505092915050565b60008060408385031215620001e857600080fd5b600083015167ffffffffffffffff8111156200020357600080fd5b6200021185828601620001a7565b925050602083015167ffffffffffffffff8111156200022f57600080fd5b6200023d85828601620001a7565b9150509250929050565b6000604051905081810181811067ffffffffffffffff8211171562000271576200027062000349565b5b8060405250919050565b600067ffffffffffffffff82111562000299576200029862000349565b5b601f19601f8301169050602081019050919050565b60005b83811015620002ce578082015181840152602081019050620002b1565b83811115620002de576000848401525b50505050565b60006002820490506001821680620002fd57607f821691505b602082108114156200031457620003136200031a565b5b50919050565b7f4e487b7100000000000000000000000000000000000000000000000000000000600052602260045260246000fd5b7f4e487b7100000000000000000000000000000000000000000000000000000000600052604160045260246000fd5b61120880620003886000396000f3fe608060405234801561001057600080fd5b506004361061009e5760003560e01c806370a082311161006657806370a082311461016f5780638da5cb5b1461019f57806395d89b41146101bd578063a9059cbb146101db578063dd62ed3e1461020b5761009e565b806306fdde03146100a3578063095ea7b3146100c157806323b872dd146100f1578063313ce5671461012157806340c10f191461013f575b600080fd5b6100ab61023b565b6040516100b89190610efd565b60405180910390f35b6100db60048036038101906100d69190610d16565b6102c9565b6040516100e89190610ee2565b60405180910390f35b61010b60048036038101906101069190610cc7565b6103bb565b6040516101189190610ee2565b60405180910390f35b61012961071d565b6040516101369190610fba565b60405180910390f35b61015960048036038101906101549190610d16565b610722565b6040516101669190610ee2565b60405180910390f35b61018960048036038101906101849190610c62565b610938565b6040516101969190610f9f565b60405180910390f35b6101a7610950565b6040516101b49190610ec7565b60405180910390f35b6101c5610976565b6040516101d29190610efd565b60405180910390f35b6101f560048036038101906101f09190610d16565b610a04565b6040516102029190610ee2565b60405180910390f35b61022560048036038101906102209190610c8b565b610c13565b6040516102329190610f9f565b60405180910390f35b6000805461024890611103565b80601f016020809104026020016040519081016040528092919081815260200182805461027490611103565b80156102c15780601f10610296576101008083540402835291602001916102c1565b820191906000526020600020905b8154815290600101906020018083116102a457829003601f168201915b505050505081565b600081600460003373ffffffffffffffffffffffffffffffffffffffff1673ffffffffffffffffffffffffffffffffffffffff16815260200190815260200160002060008573ffffffffffffffffffffffffffffffffffffffff1673ffffffffffffffffffffffffffffffffffffffff168152602001908152602001600020819055508273ffffffffffffffffffffffffffffffffffffffff163373ffffffffffffffffffffffffffffffffffffffff167f8c5be1e5ebec7d5bd14f71427d1e84f3dd0314c0f7b2291e5b200ac8c7c3b925846040516103a99190610f9f565b60405180910390a36001905092915050565b600081600360008673ffffffffffffffffffffffffffffffffffffffff1673ffffffffffffffffffffffffffffffffffffffff16815260200190815260200160002054101561043f576040517f08c379a000000000000000000000000000000000000000000000000000000000815260040161043690610f3f565b60405180910390fd5b81600460008673ffffffffffffffffffffffffffffffffffffffff1673ffffffffffffffffffffffffffffffffffffffff16815260200190815260200160002060003373ffffffffffffffffffffffffffffffffffffffff1673ffffffffffffffffffffffffffffffffffffffff1681526020019081526020016000205410156104fe576040517f08c379a00000000000000000000000000000000000000000000000000000000081526004016104f590610f1f565b60405180910390fd5b600073ffffffffffffffffffffffffffffffffffffffff168373ffffffffffffffffffffffffffffffffffffffff16141561056e576040517f08c379a000000000000000000000000000000000000000000000000000000000815260040161056590610f7f565b60405180910390fd5b81600360008673ffffffffffffffffffffffffffffffffffffffff1673ffffffffffffffffffffffffffffffffffffffff16815260200190815260200160002060008282546105bd9190611047565b9250508190555081600360008573ffffffffffffffffffffffffffffffffffffffff1673ffffffffffffffffffffffffffffffffffffffff16815260200190815260200160002060008282546106139190610ff1565b9250508190555081600460008673ffffffffffffffffffffffffffffffffffffffff1673ffffffffffffffffffffffffffffffffffffffff16815260200190815260200160002060003373ffffffffffffffffffffffffffffffffffffffff1673ffffffffffffffffffffffffffffffffffffffff16815260200190815260200160002060008282546106a69190611047565b925050819055508273ffffffffffffffffffffffffffffffffffffffff168473ffffffffffffffffffffffffffffffffffffffff167fddf252ad1be2c89b69c2b068fc378daa952ba7f163c4a11628f55a4df523b3ef8460405161070a9190610f9f565b60405180910390a3600190509392505050565b601281565b6000600260009054906101000a900473ffffffffffffffffffffffffffffffffffffffff1673ffffffffffffffffffffffffffffffffffffffff163373ffffffffffffffffffffffffffffffffffffffff16146107b4576040517f08c379a00000000000000000000000000000000000000000000000000000000081526004016107ab90610f5f565b60405180910390fd5b600073ffffffffffffffffffffffffffffffffffffffff168373ffffffffffffffffffffffffffffffffffffffff161415610824576040517f08c379a000000000000000000000000000000000000000000000000000000000815260040161081b90610f7f565b60405180910390fd5b81600360008573ffffffffffffffffffffffffffffffffffffffff1673ffffffffffffffffffffffffffffffffffffffff16815260200190815260200160002060008282546108739190610ff1565b925050819055508273ffffffffffffffffffffffffffffffffffffffff16600073ffffffffffffffffffffffffffffffffffffffff167fddf252ad1be2c89b69c2b068fc378daa952ba7f163c4a11628f55a4df523b3ef846040516108d89190610f9f565b60405180910390a38273ffffffffffffffffffffffffffffffffffffffff167f0f6798a560793a54c3bcfe86a93cde1e73087d944c0ea20544137d4121396885836040516109269190610f9f565b60405180910390a26001905092915050565b60036020528060005260406000206000915090505481565b600260009054906101000a900473ffffffffffffffffffffffffffffffffffffffff1681565b6001805461098390611103565b80601f01602080910402602001604051908101604052809291908181526020018280546109af90611103565b80156109fc5780601f106109d1576101008083540402835291602001916109fc565b820191906000526020600020905b8154815290600101906020018083116109df57829003601f168201915b505050505081565b600081600360003373ffffffffffffffffffffffffffffffffffffffff1673ffffffffffffffffffffffffffffffffffffffff168152602001908152602001600020541015610a88576040517f08c379a0000000000000000000000000000000000000000000000000000000008152600401610a7f90610f3f565b60405180910390fd5b600073ffffffffffffffffffffffffffffffffffffffff168373ffffffffffffffffffffffffffffffffffffffff161415610af8576040517f08c379a0000000000000000000000000000000000000000000000000000000008152600401610aef90610f7f565b60405180910390fd5b81600360003373ffffffffffffffffffffffffffffffffffffffff1673ffffffffffffffffffffffffffffffffffffffff1681526020019081526020016000206000828254610b479190611047565b9250508190555081600360008573ffffffffffffffffffffffffffffffffffffffff1673ffffffffffffffffffffffffffffffffffffffff1681526020019081526020016000206000828254610b9d9190610ff1565b925050819055508273ffffffffffffffffffffffffffffffffffffffff163373ffffffffffffffffffffffffffffffffffffffff167fddf252ad1be2c89b69c2b068fc378daa952ba7f163c4a11628f55a4df523b3ef84604051610c019190610f9f565b60405180910390a36001905092915050565b6004602052816000526040600020602052806000526040600020600091509150505481565b600081359050610c47816111a4565b92915050565b600081359050610c5c816111bb565b92915050565b600060208284031215610c7457600080fd5b6000610c8284828501610c38565b91505092915050565b60008060408385031215610c9e57600080fd5b6000610cac85828601610c38565b9250506020610cbd85828601610c38565b9150509250929050565b600080600060608486031215610cdc57600080fd5b6000610cea86828701610c38565b9350506020610cfb86828701610c38565b9250506040610d0c86828701610c4d565b9150509250925092565b60008060408385031215610d2957600080fd5b6000610d3785828601610c38565b9250506020610d4885828601610c4d565b9150509250929050565b610d5b8161107b565b82525050565b610d6a8161108d565b82525050565b6000610d7b82610fd5565b610d858185610fe0565b9350610d958185602086016110d0565b610d9e81611193565b840191505092915050565b6000610db6601683610fe0565b91507f496e73756666696369656e7420616c6c6f77616e6365000000000000000000006000830152602082019050919050565b6000610df6601483610fe0565b91507f496e73756666696369656e742062616c616e63650000000000000000000000006000830152602082019050919050565b6000610e36601683610fe0565b91507f4f6e6c79206f776e65722063616e20646f2074686973000000000000000000006000830152602082019050919050565b6000610e76601183610fe0565b91507f496e76616c696420726563697069656e740000000000000000000000000000006000830152602082019050919050565b610eb2816110b9565b82525050565b610ec1816110c3565b82525050565b6000602082019050610edc6000830184610d52565b92915050565b6000602082019050610ef76000830184610d61565b92915050565b60006020820190508181036000830152610f178184610d70565b905092915050565b60006020820190508181036000830152610f3881610da9565b9050919050565b60006020820190508181036000830152610f5881610de9565b9050919050565b60006020820190508181036000830152610f7881610e29565b9050919050565b60006020820190508181036000830152610f9881610e69565b9050919050565b6000602082019050610fb46000830184610ea9565b92915050565b6000602082019050610fcf6000830184610eb8565b92915050565b600081519050919050565b600082825260208201905092915050565b6000610ffc826110b9565b9150611007836110b9565b9250827fffffffffffffffffffffffffffffffffffffffffffffffffffffffffffffffff0382111561103c5761103b611135565b5b828201905092915050565b6000611052826110b9565b915061105d836110b9565b9250828210156110705761106f611135565b5b828203905092915050565b600061108682611099565b9050919050565b60008115159050919050565b600073ffffffffffffffffffffffffffffffffffffffff82169050919050565b6000819050919050565b600060ff82169050919050565b60005b838110156110ee5780820151818401526020810190506110d3565b838111156110fd576000848401525b50505050565b6000600282049050600182168061111b57607f821691505b6020821081141561112f5761112e611164565b5b50919050565b7f4e487b7100000000000000000000000000000000000000000000000000000000600052601160045260246000fd5b7f4e487b7100000000000000000000000000000000000000000000000000000000600052602260045260246000fd5b6000601f19601f8301169050919050565b6111ad8161107b565b81146111b857600080fd5b50565b6111c4816110b9565b81146111cf57600080fd5b5056fea2646970667358221220d7fdbcdba2189e7ae0fab8431d39494ff5ad1d1893e6ded5afe24570189ab55164736f6c63430008000033a2646970667358221220ee05ff0adbde6010f3ce0324462ead985d38c2b9168f5f430ddec1a5d0ec2ef964736f6c63430008000033",
  "immutableReferences": {},
  "source": "// SPDX-License-Identifier: MIT\r\nimport \"./IERC20.sol\";\r\npragma solidity ^0.8.0;\r\n\r\ncontract FarmFactory {\r\n    address public owner;\r\n    address[] public lpTokens;\r\n    IERC20 erc20;\r\n\r\n    event PoolCreated(address pool);\r\n\r\n    constructor() {\r\n        owner = msg.sender;\r\n    }\r\n\r\n    function createPool(string memory _name, string memory _symbol) public onlyOwner returns (address) {\r\n        address newPool = address(new LpToken(_name, _symbol));\r\n        lpTokens.push(newPool);\r\n        emit PoolCreated(newPool);\r\n        return newPool;\r\n    }\r\n\r\n    function mintPoolTokens(\r\n        uint256 _lpTokenNum,\r\n        uint256 _amount,\r\n        address _to\r\n    ) public onlyOwner returns (bool) {\r\n        require(_lpTokenNum < lpTokens.length, \"Invalid Id\");\r\n        IERC20(lpTokens[_lpTokenNum]).mint(_to, _amount);\r\n        return true;\r\n    }\r\n\r\n    modifier onlyOwner() {\r\n        require(msg.sender == owner, \"Only owner can call this\");\r\n        _;\r\n    }\r\n}\r\n\r\ncontract LpToken {\r\n    string public name;\r\n    string public symbol;\r\n    address public owner;\r\n    uint8 public constant decimals = 18;\r\n    mapping(address => uint256) public balanceOf;\r\n    mapping(address => mapping(address => uint256)) public allowance;\r\n\r\n    event Transfer(address indexed from, address indexed to, uint256 value);\r\n    event Approval(\r\n        address indexed owner,\r\n        address indexed spender,\r\n        uint256 value\r\n    );\r\n    event Mint(address indexed to, uint256 value);\r\n\r\n    constructor(string memory _name, string memory _symbol) {\r\n        name = _name;\r\n        symbol = _symbol;\r\n        owner = msg.sender;\r\n    }\r\n\r\n    function transfer(address _to, uint256 _value) external returns (bool) {\r\n        require(balanceOf[msg.sender] >= _value, \"Insufficient balance\");\r\n        require(_to != address(0), \"Invalid recipient\");\r\n\r\n        balanceOf[msg.sender] -= _value;\r\n        balanceOf[_to] += _value;\r\n\r\n        emit Transfer(msg.sender, _to, _value);\r\n        return true;\r\n    }\r\n\r\n    function approve(address _spender, uint256 _value) external returns (bool) {\r\n        allowance[msg.sender][_spender] = _value;\r\n\r\n        emit Approval(msg.sender, _spender, _value);\r\n        return true;\r\n    }\r\n\r\n    function transferFrom(\r\n        address _from,\r\n        address _to,\r\n        uint256 _value\r\n    ) external returns (bool) {\r\n        require(balanceOf[_from] >= _value, \"Insufficient balance\");\r\n        require(\r\n            allowance[_from][msg.sender] >= _value,\r\n            \"Insufficient allowance\"\r\n        );\r\n        require(_to != address(0), \"Invalid recipient\");\r\n\r\n        balanceOf[_from] -= _value;\r\n        balanceOf[_to] += _value;\r\n        allowance[_from][msg.sender] -= _value;\r\n\r\n        emit Transfer(_from, _to, _value);\r\n        return true;\r\n    }\r\n\r\n    function mint(\r\n        address _to,\r\n        uint256 _value\r\n    ) external onlyOwner returns (bool) {\r\n        require(_to != address(0), \"Invalid recipient\");\r\n\r\n        balanceOf[_to] += _value;\r\n\r\n        emit Transfer(address(0), _to, _value);\r\n        emit Mint(_to, _value);\r\n        return true;\r\n    }\r\n\r\n    modifier onlyOwner() {\r\n        require(msg.sender == owner, \"Only owner can do this\");\r\n        _;\r\n    }\r\n}\r\n",
  "sourcePath": "C:\\Users\\Denli\\Desktop\\CodeGod\\Projects\\farming-app\\src\\contracts\\FarmFactory.sol",
  "compiler": {
    "name": "solc",
    "version": "0.8.0+commit.c7dfd78e.Emscripten.clang"
  },
  "schemaVersion": "3.4.3",
  "updatedAt": "2023-07-09T02:10:15.124Z",
  "networkType": "ethereum",
  "devdoc": {
    "kind": "dev",
    "methods": {},
    "version": 1
  },
  "userdoc": {
    "kind": "user",
    "methods": {},
    "version": 1
  }
}